{
  "contractName": "Trusts",
  "abi": [
    {
      "inputs": [],
      "payable": false,
      "stateMutability": "nonpayable",
      "type": "constructor"
    },
    {
      "anonymous": false,
      "inputs": [
        {
          "indexed": false,
          "internalType": "address",
          "name": "sender",
          "type": "address"
        },
        {
          "indexed": false,
          "internalType": "bytes32",
          "name": "key",
          "type": "bytes32"
        },
        {
          "indexed": false,
          "internalType": "string",
          "name": "name",
          "type": "string"
        }
      ],
      "name": "LogCreateTrust",
      "type": "event"
    },
    {
      "anonymous": false,
      "inputs": [
        {
          "indexed": false,
          "internalType": "address",
          "name": "sender",
          "type": "address"
        },
        {
          "indexed": false,
          "internalType": "bytes32",
          "name": "key",
          "type": "bytes32"
        },
        {
          "indexed": false,
          "internalType": "uint256",
          "name": "etherAmount",
          "type": "uint256"
        }
      ],
      "name": "LogDepositTrust",
      "type": "event"
    },
    {
      "anonymous": false,
      "inputs": [
        {
          "indexed": false,
          "internalType": "address",
          "name": "sender",
          "type": "address"
        },
        {
          "indexed": false,
          "internalType": "bytes32",
          "name": "key",
          "type": "bytes32"
        }
      ],
      "name": "LogRemoveTrust",
      "type": "event"
    },
    {
      "anonymous": false,
      "inputs": [
        {
          "indexed": false,
          "internalType": "address",
          "name": "sender",
          "type": "address"
        },
        {
          "indexed": false,
          "internalType": "bytes32",
          "name": "key",
          "type": "bytes32"
        },
        {
          "indexed": false,
          "internalType": "string",
          "name": "name",
          "type": "string"
        }
      ],
      "name": "LogUpdateTrust",
      "type": "event"
    },
    {
      "constant": false,
      "inputs": [
        {
          "internalType": "address",
          "name": "_beneficiary",
          "type": "address"
        },
        {
          "internalType": "address",
          "name": "_trustee",
          "type": "address"
        },
        {
          "internalType": "string",
          "name": "_name",
          "type": "string"
        },
        {
          "internalType": "uint256",
          "name": "_maturityDate",
          "type": "uint256"
        }
      ],
      "name": "createTrust",
      "outputs": [],
      "payable": true,
      "stateMutability": "payable",
      "type": "function"
    },
    {
      "constant": false,
      "inputs": [
        {
          "internalType": "bytes32",
          "name": "key",
          "type": "bytes32"
        },
        {
          "internalType": "address",
          "name": "_beneficiary",
          "type": "address"
        },
        {
          "internalType": "string",
          "name": "_name",
          "type": "string"
        },
        {
          "internalType": "uint256",
          "name": "_maturityDate",
          "type": "uint256"
        }
      ],
      "name": "updateTrust",
      "outputs": [],
      "payable": false,
      "stateMutability": "nonpayable",
      "type": "function"
    },
    {
      "constant": false,
      "inputs": [
        {
          "internalType": "bytes32",
          "name": "key",
          "type": "bytes32"
        }
      ],
      "name": "depositTrust",
      "outputs": [],
      "payable": true,
      "stateMutability": "payable",
      "type": "function"
    },
    {
      "constant": false,
      "inputs": [
        {
          "internalType": "bytes32",
          "name": "key",
          "type": "bytes32"
        }
      ],
      "name": "deleteTrust",
      "outputs": [],
      "payable": false,
      "stateMutability": "nonpayable",
      "type": "function"
    },
    {
      "constant": true,
      "inputs": [
        {
          "internalType": "bytes32",
          "name": "key",
          "type": "bytes32"
        }
      ],
      "name": "getTrustName",
      "outputs": [
        {
          "internalType": "string",
          "name": "name",
          "type": "string"
        }
      ],
      "payable": false,
      "stateMutability": "view",
      "type": "function"
    },
    {
      "constant": true,
      "inputs": [
        {
          "internalType": "bytes32",
          "name": "_key",
          "type": "bytes32"
        }
      ],
      "name": "getTrust",
      "outputs": [
        {
          "internalType": "bytes32",
          "name": "key",
          "type": "bytes32"
        },
        {
          "internalType": "string",
          "name": "name",
          "type": "string"
        },
        {
          "internalType": "address",
          "name": "beneficiary",
          "type": "address"
        },
        {
          "internalType": "uint256",
          "name": "etherAmount",
          "type": "uint256"
        },
        {
          "internalType": "address",
          "name": "creator",
          "type": "address"
        },
        {
          "internalType": "uint256",
          "name": "createdDate",
          "type": "uint256"
        },
        {
          "internalType": "uint256",
          "name": "maturityDate",
          "type": "uint256"
        }
      ],
      "payable": false,
      "stateMutability": "view",
      "type": "function"
    },
    {
      "constant": true,
      "inputs": [],
      "name": "getTrustCount",
      "outputs": [
        {
          "internalType": "uint256",
          "name": "count",
          "type": "uint256"
        }
      ],
      "payable": false,
      "stateMutability": "view",
      "type": "function"
    },
    {
      "constant": true,
      "inputs": [
        {
          "internalType": "uint256",
          "name": "index",
          "type": "uint256"
        }
      ],
      "name": "getTrustAtIndex",
      "outputs": [
        {
          "internalType": "bytes32",
          "name": "key",
          "type": "bytes32"
        }
      ],
      "payable": false,
      "stateMutability": "view",
      "type": "function"
    },
    {
      "constant": false,
      "inputs": [
        {
          "internalType": "bytes32",
          "name": "key",
          "type": "bytes32"
        },
        {
          "internalType": "uint256",
          "name": "_etherAmount",
          "type": "uint256"
        }
      ],
      "name": "withdraw",
      "outputs": [],
      "payable": true,
      "stateMutability": "payable",
      "type": "function"
    },
    {
      "constant": false,
      "inputs": [
        {
          "internalType": "bytes32",
          "name": "key",
          "type": "bytes32"
        }
      ],
      "name": "withdrawAll",
      "outputs": [],
      "payable": true,
      "stateMutability": "payable",
      "type": "function"
    }
  ],
  "bytecode": "0x608060405234801561001057600080fd5b507f3078310000000000000000000000000000000000000000000000000000000000600281905550611f6d806100476000396000f3fe6080604052600436106100915760003560e01c8063bd40689111610059578063bd4068911461023a578063c05fdce91461033f578063c42c6e1414610475578063d0af1d9c146104a3578063e80dfb9a1461059f57610091565b8063040cf020146100965780630905fa12146100ce57806343782b98146100fc578063891a1936146101b0578063b6309f56146101ff575b600080fd5b6100cc600480360360408110156100ac57600080fd5b8101908080359060200190929190803590602001909291905050506105ca565b005b6100fa600480360360208110156100e457600080fd5b8101908080359060200190929190505050610933565b005b34801561010857600080fd5b506101356004803603602081101561011f57600080fd5b81019080803590602001909291905050506109c9565b6040518080602001828103825283818151815260200191508051906020019080838360005b8381101561017557808201518184015260208101905061015a565b50505050905090810190601f1680156101a25780820380516001836020036101000a031916815260200191505b509250505060405180910390f35b3480156101bc57600080fd5b506101e9600480360360208110156101d357600080fd5b8101908080359060200190929190505050610b0d565b6040518082815260200191505060405180910390f35b34801561020b57600080fd5b506102386004803603602081101561022257600080fd5b8101908080359060200190929190505050610b2a565b005b61033d6004803603608081101561025057600080fd5b81019080803573ffffffffffffffffffffffffffffffffffffffff169060200190929190803573ffffffffffffffffffffffffffffffffffffffff169060200190929190803590602001906401000000008111156102ad57600080fd5b8201836020820111156102bf57600080fd5b803590602001918460018302840111640100000000831117156102e157600080fd5b91908080601f016020809104026020016040519081016040528093929190818152602001838380828437600081840152601f19601f82011690508083019250505050505050919291929080359060200190929190505050610fab565b005b34801561034b57600080fd5b506103786004803603602081101561036257600080fd5b8101908080359060200190929190505050611202565b60405180888152602001806020018773ffffffffffffffffffffffffffffffffffffffff1673ffffffffffffffffffffffffffffffffffffffff1681526020018681526020018573ffffffffffffffffffffffffffffffffffffffff1673ffffffffffffffffffffffffffffffffffffffff168152602001848152602001838152602001828103825288818151815260200191508051906020019080838360005b83811015610434578082015181840152602081019050610419565b50505050905090810190601f1680156104615780820380516001836020036101000a031916815260200191505b509850505050505050505060405180910390f35b6104a16004803603602081101561048b57600080fd5b81019080803590602001909291905050506113a6565b005b3480156104af57600080fd5b5061059d600480360360808110156104c657600080fd5b8101908080359060200190929190803573ffffffffffffffffffffffffffffffffffffffff1690602001909291908035906020019064010000000081111561050d57600080fd5b82018360208201111561051f57600080fd5b8035906020019184600183028401116401000000008311171561054157600080fd5b91908080601f016020809104026020016040519081016040528093929190818152602001838380828437600081840152601f19601f82011690508083019250505050505050919291929080359060200190929190505050611633565b005b3480156105ab57600080fd5b506105b46118c3565b6040518082815260200191505060405180910390f35b6105de8260006118d490919063ffffffff16565b610650576040517f08c379a00000000000000000000000000000000000000000000000000000000081526004018080602001828103825260148152602001807f547275737420646f65736e27742065786973742e00000000000000000000000081525060200191505060405180910390fd5b60006003600084815260200190815260200160002090508060040160009054906101000a900473ffffffffffffffffffffffffffffffffffffffff1673ffffffffffffffffffffffffffffffffffffffff163373ffffffffffffffffffffffffffffffffffffffff16148061071457508060020160009054906101000a900473ffffffffffffffffffffffffffffffffffffffff1673ffffffffffffffffffffffffffffffffffffffff163373ffffffffffffffffffffffffffffffffffffffff16145b8061076e57508060030160009054906101000a900473ffffffffffffffffffffffffffffffffffffffff1673ffffffffffffffffffffffffffffffffffffffff163373ffffffffffffffffffffffffffffffffffffffff16145b6107c3576040517f08c379a0000000000000000000000000000000000000000000000000000000008152600401808060200182810382526023815260200180611e966023913960400191505060405180910390fd5b8060040160009054906101000a900473ffffffffffffffffffffffffffffffffffffffff1673ffffffffffffffffffffffffffffffffffffffff163373ffffffffffffffffffffffffffffffffffffffff1614610878574281600701541015610877576040517f08c379a0000000000000000000000000000000000000000000000000000000008152600401808060200182810382526023815260200180611f166023913960400191505060405180910390fd5b5b80600501548211156108d5576040517f08c379a000000000000000000000000000000000000000000000000000000000815260040180806020018281038252602e815260200180611e0c602e913960400191505060405180910390fd5b3373ffffffffffffffffffffffffffffffffffffffff166108fc839081150290604051600060405180830381858888f1935050505015801561091b573d6000803e3d6000fd5b50818160050160008282540392505081905550505050565b6109478160006118d490919063ffffffff16565b61099c576040517f08c379a0000000000000000000000000000000000000000000000000000000008152600401808060200182810382526028815260200180611d986028913960400191505060405180910390fd5b60006003600083815260200190815260200160002090503481600501600082825401925050819055505050565b60606109df8260006118d490919063ffffffff16565b610a51576040517f08c379a000000000000000000000000000000000000000000000000000000000815260040180806020018281038252600f8152602001807f5472757374206e6f7420666f756e64000000000000000000000000000000000081525060200191505060405180910390fd5b6000600360008481526020019081526020016000209050806001018054600181600116156101000203166002900480601f016020809104026020016040519081016040528092919081815260200182805460018160011615610100020316600290048015610b005780601f10610ad557610100808354040283529160200191610b00565b820191906000526020600020905b815481529060010190602001808311610ae357829003601f168201915b5050505050915050919050565b6000610b2382600061192890919063ffffffff16565b9050919050565b610b3e8160006118d490919063ffffffff16565b610b93576040517f08c379a0000000000000000000000000000000000000000000000000000000008152600401808060200182810382526028815260200180611eee6028913960400191505060405180910390fd5b610b9b611b77565b600360008381526020019081526020016000206040518061010001604052908160008201548152602001600182018054600181600116156101000203166002900480601f016020809104026020016040519081016040528092919081815260200182805460018160011615610100020316600290048015610c5d5780601f10610c3257610100808354040283529160200191610c5d565b820191906000526020600020905b815481529060010190602001808311610c4057829003601f168201915b505050505081526020016002820160009054906101000a900473ffffffffffffffffffffffffffffffffffffffff1673ffffffffffffffffffffffffffffffffffffffff1673ffffffffffffffffffffffffffffffffffffffff1681526020016003820160009054906101000a900473ffffffffffffffffffffffffffffffffffffffff1673ffffffffffffffffffffffffffffffffffffffff1673ffffffffffffffffffffffffffffffffffffffff1681526020016004820160009054906101000a900473ffffffffffffffffffffffffffffffffffffffff1673ffffffffffffffffffffffffffffffffffffffff1673ffffffffffffffffffffffffffffffffffffffff1681526020016005820154815260200160068201548152602001600782015481525050905060008160a0015114610de5576040517f08c379a0000000000000000000000000000000000000000000000000000000008152600401808060200182810382526030815260200180611d406030913960400191505060405180910390fd5b806080015173ffffffffffffffffffffffffffffffffffffffff163373ffffffffffffffffffffffffffffffffffffffff1614610e6d576040517f08c379a0000000000000000000000000000000000000000000000000000000008152600401808060200182810382526027815260200180611de56027913960400191505060405180910390fd5b610e8182600061194c90919063ffffffff16565b60036000838152602001908152602001600020600080820160009055600182016000610ead9190611c01565b6002820160006101000a81549073ffffffffffffffffffffffffffffffffffffffff02191690556003820160006101000a81549073ffffffffffffffffffffffffffffffffffffffff02191690556004820160006101000a81549073ffffffffffffffffffffffffffffffffffffffff021916905560058201600090556006820160009055600782016000905550507fe766bc0652d21f92ea757a24078cf3ba4f6171072af865e53ac3e2a015ae55493383604051808373ffffffffffffffffffffffffffffffffffffffff1673ffffffffffffffffffffffffffffffffffffffff1681526020018281526020019250505060405180910390a15050565b610fc16002546000611a5d90919063ffffffff16565b60006003600060025481526020019081526020016000209050600254816000018190555082816001019080519060200190610ffd929190611c49565b50848160020160006101000a81548173ffffffffffffffffffffffffffffffffffffffff021916908373ffffffffffffffffffffffffffffffffffffffff160217905550838160030160006101000a81548173ffffffffffffffffffffffffffffffffffffffff021916908373ffffffffffffffffffffffffffffffffffffffff160217905550348160050181905550338160040160006101000a81548173ffffffffffffffffffffffffffffffffffffffff021916908373ffffffffffffffffffffffffffffffffffffffff160217905550428160060181905550818160070181905550600060025460001c905080806001019150508060001b6002819055507f8a9da6227e575405dc95a03cbc4aa246aa87bf4c849903103f43c9f30cc58e9e33836000015484600101604051808473ffffffffffffffffffffffffffffffffffffffff1673ffffffffffffffffffffffffffffffffffffffff168152602001838152602001806020018281038252838181546001816001161561010002031660029004815260200191508054600181600116156101000203166002900480156111ea5780601f106111bf576101008083540402835291602001916111ea565b820191906000526020600020905b8154815290600101906020018083116111cd57829003601f168201915b505094505050505060405180910390a1505050505050565b6000606060008060008060006112228860006118d490919063ffffffff16565b611277576040517f08c379a0000000000000000000000000000000000000000000000000000000008152600401808060200182810382526025815260200180611dc06025913960400191505060405180910390fd5b6000600360008a815260200190815260200160002090508060000154816001018260020160009054906101000a900473ffffffffffffffffffffffffffffffffffffffff1683600501548460040160009054906101000a900473ffffffffffffffffffffffffffffffffffffffff1685600601548660070154858054600181600116156101000203166002900480601f0160208091040260200160405190810160405280929190818152602001828054600181600116156101000203166002900480156113855780601f1061135a57610100808354040283529160200191611385565b820191906000526020600020905b81548152906001019060200180831161136857829003601f168201915b50505050509550975097509750975097509750975050919395979092949650565b6113ba8160006118d490919063ffffffff16565b61142c576040517f08c379a00000000000000000000000000000000000000000000000000000000081526004018080602001828103825260148152602001807f547275737420646f65736e27742065786973742e00000000000000000000000081525060200191505060405180910390fd5b611434611b77565b600360008381526020019081526020016000206040518061010001604052908160008201548152602001600182018054600181600116156101000203166002900480601f0160208091040260200160405190810160405280929190818152602001828054600181600116156101000203166002900480156114f65780601f106114cb576101008083540402835291602001916114f6565b820191906000526020600020905b8154815290600101906020018083116114d957829003601f168201915b505050505081526020016002820160009054906101000a900473ffffffffffffffffffffffffffffffffffffffff1673ffffffffffffffffffffffffffffffffffffffff1673ffffffffffffffffffffffffffffffffffffffff1681526020016003820160009054906101000a900473ffffffffffffffffffffffffffffffffffffffff1673ffffffffffffffffffffffffffffffffffffffff1673ffffffffffffffffffffffffffffffffffffffff1681526020016004820160009054906101000a900473ffffffffffffffffffffffffffffffffffffffff1673ffffffffffffffffffffffffffffffffffffffff1673ffffffffffffffffffffffffffffffffffffffff1681526020016005820154815260200160068201548152602001600782015481525050905061162f828260a001516105ca565b5050565b6116478460006118d490919063ffffffff16565b61169c576040517f08c379a0000000000000000000000000000000000000000000000000000000008152600401808060200182810382526028815260200180611d986028913960400191505060405180910390fd5b60006003600086815260200190815260200160002090508060040160009054906101000a900473ffffffffffffffffffffffffffffffffffffffff1673ffffffffffffffffffffffffffffffffffffffff163373ffffffffffffffffffffffffffffffffffffffff161461175b576040517f08c379a0000000000000000000000000000000000000000000000000000000008152600401808060200182810382526027815260200180611e3a6027913960400191505060405180910390fd5b82816001019080519060200190611773929190611c49565b50838160020160006101000a81548173ffffffffffffffffffffffffffffffffffffffff021916908373ffffffffffffffffffffffffffffffffffffffff1602179055508181600701819055507f25a57a8fa1c5147389ddeebada126a8b82479b2ff157205a4c47d91ae3b5f1d233826000015483600101604051808473ffffffffffffffffffffffffffffffffffffffff1673ffffffffffffffffffffffffffffffffffffffff168152602001838152602001806020018281038252838181546001816001161561010002031660029004815260200191508054600181600116156101000203166002900480156118ac5780601f10611881576101008083540402835291602001916118ac565b820191906000526020600020905b81548152906001019060200180831161188f57829003601f168201915b505094505050505060405180910390a15050505050565b60006118cf6000611b66565b905090565b600080836001018054905014156118ee5760009050611922565b8183600101846000016000858152602001908152602001600020548154811061191357fe5b90600052602060002001541490505b92915050565b600082600101828154811061193957fe5b9060005260206000200154905092915050565b61195682826118d4565b6119ab576040517f08c379a0000000000000000000000000000000000000000000000000000000008152600401808060200182810382526035815260200180611e616035913960400191505060405180910390fd5b60008260010160016119bc85611b66565b03815481106119c757fe5b906000526020600020015490506000836000016000848152602001908152602001600020549050808460000160008481526020019081526020016000208190555081846001018281548110611a1857fe5b90600052602060002001819055508360000160008481526020019081526020016000206000905583600101805480919060019003611a569190611cc9565b5050505050565b6000801b811415611ab9576040517f08c379a0000000000000000000000000000000000000000000000000000000008152600401808060200182810382526028815260200180611d706028913960400191505060405180910390fd5b611ac382826118d4565b15611b19576040517f08c379a0000000000000000000000000000000000000000000000000000000008152600401808060200182810382526035815260200180611eb96035913960400191505060405180910390fd5b600182600101829080600181540180825580915050906001820390600052602060002001600090919290919091505503826000016000838152602001908152602001600020819055505050565b600081600101805490509050919050565b6040518061010001604052806000801916815260200160608152602001600073ffffffffffffffffffffffffffffffffffffffff168152602001600073ffffffffffffffffffffffffffffffffffffffff168152602001600073ffffffffffffffffffffffffffffffffffffffff1681526020016000815260200160008152602001600081525090565b50805460018160011615610100020316600290046000825580601f10611c275750611c46565b601f016020900490600052602060002090810190611c459190611cf5565b5b50565b828054600181600116156101000203166002900490600052602060002090601f016020900481019282601f10611c8a57805160ff1916838001178555611cb8565b82800160010185558215611cb8579182015b82811115611cb7578251825591602001919060010190611c9c565b5b509050611cc59190611cf5565b5090565b815481835581811115611cf057818360005260206000209182019101611cef9190611d1a565b5b505050565b611d1791905b80821115611d13576000816000905550600101611cfb565b5090565b90565b611d3c91905b80821115611d38576000816000905550600101611d20565b5090565b9056fe43616e27742064656c657465206120747275737420776974682065746865722c2077697468647261772066697273742e556e6f7264657265644b65795365742831303029202d204b65792063616e6e6f742062652030783043616e2774207570646174652061207472757374207468617420646f65736e27742065786973742e43616e2774206765742061207472757374207468617420646f65736e27742065786973742e4f6e6c79207468652063726561746f722063616e2064656c65746520746869732074727573742e43616e2774207769746864726177206d6f7265206574686572207468616e2065786973747320696e2074727573744f6e6c79207468652063726561746f722063616e2075706461746520746869732074727573742e556e6f7264657265644b65795365742831303229202d204b657920646f6573206e6f7420657869737420696e20746865207365742e4f6e6c792043726561746f7220616e64204f776e65722063616e207769746864726177556e6f7264657265644b65795365742831303129202d204b657920616c72656164792065786973747320696e20746865207365742e43616e27742064656c6574652061207472757374207468617420646f65736e27742065786973742e43616e6e6f7420776974686472617720756e74696c204d617475726974792064617465a265627a7a72315820fa0d2ac10fa8b80c9c30efe88558aaedcbc41dd44905035ad94d26d793fcec0d64736f6c63430005100032",
  "source": "pragma solidity >=0.5.0 <0.9.0;\n\nimport \"./HitchensUnorderedKeySet.sol\";\n\ncontract Trusts {\n\n    using HitchensUnorderedKeySetLib for HitchensUnorderedKeySetLib.Set;\n    HitchensUnorderedKeySetLib.Set trustSet;\n \n    // data structure that stores a trust\n    struct Trust {\n        bytes32 key;\n        string name;\n        address beneficiary;\n        address trustee;\n        address creator;\n        uint etherAmount;\n        uint createdDate;\n        uint maturityDate;\n    }\n\n    bytes32 nextKey;\n \n    mapping(bytes32 => Trust) trusts;\n    \n    event LogCreateTrust(address sender, bytes32 key, string name);\n    event LogUpdateTrust(address sender, bytes32 key, string name);    \n    event LogDepositTrust(address sender, bytes32 key, uint etherAmount);    \n    event LogRemoveTrust(address sender, bytes32 key);\n\n    /**\n     * Constructor function\n     */\n    constructor() public {\n        nextKey = '0x1';\n    }\n\n    function createTrust (address _beneficiary, address _trustee,\n                         string memory _name,  \n                         uint _maturityDate) public payable {\n        \n \n        trustSet.insert(nextKey); // Note that this will fail automatically if the key already exists.\n        \n        Trust storage t = trusts[nextKey];\n    \n        t.key = nextKey;\n        t.name = _name;\n        t.beneficiary = _beneficiary;\n        t.trustee = _trustee;\n        t.etherAmount = msg.value;\n        t.creator = msg.sender;\n        t.createdDate = now;\n        t.maturityDate = _maturityDate;\n\n        uint n = uint(nextKey);\n        n++;\n        nextKey = bytes32(n);\n\n        emit LogCreateTrust(msg.sender, t.key, t.name);\n        \n    }\n\n    function updateTrust(bytes32 key, address _beneficiary, \n                         string memory _name,  \n                         uint _maturityDate) public {\n        \n        require(trustSet.exists(key), \"Can't update a trust that doesn't exist.\");\n        Trust storage t = trusts[key];\n\n        require(msg.sender == t.creator, \"Only the creator can update this trust.\");\n\n        t.name = _name;\n        t.beneficiary = _beneficiary;\n        t.maturityDate = _maturityDate;\n\n        emit LogUpdateTrust(msg.sender, t.key, t.name);\n    }\n    \n    function depositTrust(bytes32 key) public payable {\n        \n        require(trustSet.exists(key), \"Can't update a trust that doesn't exist.\");\n        \n        Trust storage t = trusts[key];\n\n        t.etherAmount += msg.value;\n\n        //emit LogDepositTrust(msg.sender, key, msg.value);\n    }\n    \n    function deleteTrust(bytes32 key) public {\n\n        require(trustSet.exists(key), \"Can't delete a trust that doesn't exist.\");\n        \n        Trust memory t = trusts[key];\n\n        require(t.etherAmount == 0, \"Can't delete a trust with ether, withdraw first.\");\n        require(msg.sender == t.creator, \"Only the creator can delete this trust.\");\n\n        trustSet.remove(key); // Note that this will fail automatically if the key doesn't exist\n        \n        delete trusts[key];\n        \n        emit LogRemoveTrust(msg.sender, key);\n    }\n \n /*         bytes32 key;\n        string name;\n        address beneficiary;\n        uint etherAmount;\n        address creator;\n        uint createdDate;\n        uint maturityDate;\n */\n    function getTrustName(bytes32 key) public view returns(string memory name)\n    {\n        require(trustSet.exists(key), \"Trust not found\");\n        Trust storage t = trusts[key];\n        return t.name;\n    }\n    function getTrust(bytes32 _key) public view returns( bytes32 key,\n                                                        string memory name, \n                                                        address beneficiary,\n                                                        uint etherAmount,\n                                                        address creator,\n                                                        uint createdDate,\n                                                        uint maturityDate) {\n        \n        require(trustSet.exists(_key), \"Can't get a trust that doesn't exist.\");\n        \n        Trust storage t = trusts[_key];\n\n        return(t.key, t.name, t.beneficiary, t.etherAmount, t.creator, t.createdDate, t.maturityDate);\n    }\n    \n    function getTrustCount() public view returns(uint count) {\n        return trustSet.count();\n    }\n    \n    function getTrustAtIndex(uint index) public view returns(bytes32 key) {\n        return trustSet.keyAtIndex(index);\n    }\n\n    // Todo: Add OnlyAfter\n    \n    function withdraw (bytes32 key, uint _etherAmount) public payable {\n        \n        require(trustSet.exists(key), \"Trust doesn't exist.\");\n\n        Trust storage t = trusts[key];\n\n        require(msg.sender == t.creator || \n                msg.sender == t.beneficiary ||\n                msg.sender == t.trustee\n                , \"Only Creator and Owner can withdraw\");\n        \n        if(msg.sender != t.creator)\n            require(t.maturityDate >= now, \"Cannot withdraw until Maturity date\");\n \n        //TODO: Check that date allows\n        require(_etherAmount <= t.etherAmount, \"Can't withdraw more ether than exists in trust\");\n\n        msg.sender.transfer(_etherAmount);\n        \n        t.etherAmount -= _etherAmount;\n    }\n    \n    function withdrawAll (bytes32 key) public payable {\n        \n        require(trustSet.exists(key), \"Trust doesn't exist.\");\n        Trust memory t = trusts[key];\n        withdraw(key, t.etherAmount);\n    }\n}\n",
  "sourcePath": "/Users/rowantrollope/git/ethtrust/contracts/Trusts.sol",
  "compiler": {
    "name": "solc",
    "version": "0.5.16+commit.9c3226ce.Emscripten.clang"
  },
  "schemaVersion": "3.4.0",
  "updatedAt": "2021-06-24T07:16:34.639Z",
  "networkType": "ethereum",
  "devdoc": {
    "methods": {}
  },
  "userdoc": {
    "methods": {
      "constructor": "Constructor function"
    }
  }
}