{
  "contractName": "Trusts",
  "abi": [
    {
      "inputs": [],
      "payable": false,
      "stateMutability": "nonpayable",
      "type": "constructor"
    },
    {
      "anonymous": false,
      "inputs": [
        {
          "indexed": false,
          "internalType": "address",
          "name": "sender",
          "type": "address"
        },
        {
          "indexed": false,
          "internalType": "bytes32",
          "name": "key",
          "type": "bytes32"
        },
        {
          "indexed": false,
          "internalType": "string",
          "name": "name",
          "type": "string"
        }
      ],
      "name": "LogCreateTrust",
      "type": "event"
    },
    {
      "anonymous": false,
      "inputs": [
        {
          "indexed": false,
          "internalType": "address",
          "name": "sender",
          "type": "address"
        },
        {
          "indexed": false,
          "internalType": "bytes32",
          "name": "key",
          "type": "bytes32"
        },
        {
          "indexed": false,
          "internalType": "uint256",
          "name": "etherAmount",
          "type": "uint256"
        }
      ],
      "name": "LogDepositTrust",
      "type": "event"
    },
    {
      "anonymous": false,
      "inputs": [
        {
          "indexed": false,
          "internalType": "address",
          "name": "sender",
          "type": "address"
        },
        {
          "indexed": false,
          "internalType": "bytes32",
          "name": "key",
          "type": "bytes32"
        }
      ],
      "name": "LogRemoveTrust",
      "type": "event"
    },
    {
      "anonymous": false,
      "inputs": [
        {
          "indexed": false,
          "internalType": "address",
          "name": "sender",
          "type": "address"
        },
        {
          "indexed": false,
          "internalType": "bytes32",
          "name": "key",
          "type": "bytes32"
        },
        {
          "indexed": false,
          "internalType": "string",
          "name": "name",
          "type": "string"
        }
      ],
      "name": "LogUpdateTrust",
      "type": "event"
    },
    {
      "constant": false,
      "inputs": [
        {
          "internalType": "address",
          "name": "_beneficiary",
          "type": "address"
        },
        {
          "internalType": "string",
          "name": "_name",
          "type": "string"
        },
        {
          "internalType": "uint256",
          "name": "_maturityDate",
          "type": "uint256"
        }
      ],
      "name": "createTrust",
      "outputs": [],
      "payable": true,
      "stateMutability": "payable",
      "type": "function"
    },
    {
      "constant": false,
      "inputs": [
        {
          "internalType": "bytes32",
          "name": "key",
          "type": "bytes32"
        },
        {
          "internalType": "address",
          "name": "_beneficiary",
          "type": "address"
        },
        {
          "internalType": "string",
          "name": "_name",
          "type": "string"
        },
        {
          "internalType": "uint256",
          "name": "_maturityDate",
          "type": "uint256"
        }
      ],
      "name": "updateTrust",
      "outputs": [],
      "payable": false,
      "stateMutability": "nonpayable",
      "type": "function"
    },
    {
      "constant": false,
      "inputs": [
        {
          "internalType": "bytes32",
          "name": "key",
          "type": "bytes32"
        }
      ],
      "name": "depositTrust",
      "outputs": [],
      "payable": true,
      "stateMutability": "payable",
      "type": "function"
    },
    {
      "constant": false,
      "inputs": [
        {
          "internalType": "bytes32",
          "name": "key",
          "type": "bytes32"
        }
      ],
      "name": "deleteTrust",
      "outputs": [],
      "payable": false,
      "stateMutability": "nonpayable",
      "type": "function"
    },
    {
      "constant": true,
      "inputs": [
        {
          "internalType": "bytes32",
          "name": "key",
          "type": "bytes32"
        }
      ],
      "name": "getTrustName",
      "outputs": [
        {
          "internalType": "string",
          "name": "name",
          "type": "string"
        }
      ],
      "payable": false,
      "stateMutability": "view",
      "type": "function"
    },
    {
      "constant": true,
      "inputs": [
        {
          "internalType": "bytes32",
          "name": "_key",
          "type": "bytes32"
        }
      ],
      "name": "getTrust",
      "outputs": [
        {
          "internalType": "bytes32",
          "name": "key",
          "type": "bytes32"
        },
        {
          "internalType": "string",
          "name": "name",
          "type": "string"
        },
        {
          "internalType": "address",
          "name": "beneficiary",
          "type": "address"
        },
        {
          "internalType": "uint256",
          "name": "etherAmount",
          "type": "uint256"
        },
        {
          "internalType": "address",
          "name": "creator",
          "type": "address"
        },
        {
          "internalType": "uint256",
          "name": "createdDate",
          "type": "uint256"
        },
        {
          "internalType": "uint256",
          "name": "maturityDate",
          "type": "uint256"
        }
      ],
      "payable": false,
      "stateMutability": "view",
      "type": "function"
    },
    {
      "constant": true,
      "inputs": [],
      "name": "getTrustCount",
      "outputs": [
        {
          "internalType": "uint256",
          "name": "count",
          "type": "uint256"
        }
      ],
      "payable": false,
      "stateMutability": "view",
      "type": "function"
    },
    {
      "constant": true,
      "inputs": [
        {
          "internalType": "uint256",
          "name": "index",
          "type": "uint256"
        }
      ],
      "name": "getTrustAtIndex",
      "outputs": [
        {
          "internalType": "bytes32",
          "name": "key",
          "type": "bytes32"
        }
      ],
      "payable": false,
      "stateMutability": "view",
      "type": "function"
    },
    {
      "constant": false,
      "inputs": [
        {
          "internalType": "bytes32",
          "name": "key",
          "type": "bytes32"
        },
        {
          "internalType": "uint256",
          "name": "_etherAmount",
          "type": "uint256"
        }
      ],
      "name": "withdraw",
      "outputs": [],
      "payable": true,
      "stateMutability": "payable",
      "type": "function"
    },
    {
      "constant": false,
      "inputs": [
        {
          "internalType": "bytes32",
          "name": "key",
          "type": "bytes32"
        }
      ],
      "name": "withdrawAll",
      "outputs": [],
      "payable": true,
      "stateMutability": "payable",
      "type": "function"
    }
  ],
  "bytecode": "0x608060405234801561001057600080fd5b507f3078310000000000000000000000000000000000000000000000000000000000600281905550611c15806100476000396000f3fe6080604052600436106100915760003560e01c8063b6309f5611610059578063b6309f56146102e4578063c05fdce91461031f578063c42c6e1414610455578063d0af1d9c14610483578063e80dfb9a1461057f57610091565b8063040cf020146100965780630905fa12146100ce578063222882cc146100fc57806343782b98146101e1578063891a193614610295575b600080fd5b6100cc600480360360408110156100ac57600080fd5b8101908080359060200190929190803590602001909291905050506105aa565b005b6100fa600480360360208110156100e457600080fd5b8101908080359060200190929190505050610804565b005b6101df6004803603606081101561011257600080fd5b81019080803573ffffffffffffffffffffffffffffffffffffffff1690602001909291908035906020019064010000000081111561014f57600080fd5b82018360208201111561016157600080fd5b8035906020019184600183028401116401000000008311171561018357600080fd5b91908080601f016020809104026020016040519081016040528093929190818152602001838380828437600081840152601f19601f8201169050808301925050505050505091929192908035906020019092919050505061089a565b005b3480156101ed57600080fd5b5061021a6004803603602081101561020457600080fd5b8101908080359060200190929190505050610aad565b6040518080602001828103825283818151815260200191508051906020019080838360005b8381101561025a57808201518184015260208101905061023f565b50505050905090810190601f1680156102875780820380516001836020036101000a031916815260200191505b509250505060405180910390f35b3480156102a157600080fd5b506102ce600480360360208110156102b857600080fd5b8101908080359060200190929190505050610bf1565b6040518082815260200191505060405180910390f35b3480156102f057600080fd5b5061031d6004803603602081101561030757600080fd5b8101908080359060200190929190505050610c0e565b005b34801561032b57600080fd5b506103586004803603602081101561034257600080fd5b8101908080359060200190929190505050611011565b60405180888152602001806020018773ffffffffffffffffffffffffffffffffffffffff1673ffffffffffffffffffffffffffffffffffffffff1681526020018681526020018573ffffffffffffffffffffffffffffffffffffffff1673ffffffffffffffffffffffffffffffffffffffff168152602001848152602001838152602001828103825288818151815260200191508051906020019080838360005b838110156104145780820151818401526020810190506103f9565b50505050905090810190601f1680156104415780820380516001836020036101000a031916815260200191505b509850505050505050505060405180910390f35b6104816004803603602081101561046b57600080fd5b81019080803590602001909291905050506111b5565b005b34801561048f57600080fd5b5061057d600480360360808110156104a657600080fd5b8101908080359060200190929190803573ffffffffffffffffffffffffffffffffffffffff169060200190929190803590602001906401000000008111156104ed57600080fd5b8201836020820111156104ff57600080fd5b8035906020019184600183028401116401000000008311171561052157600080fd5b91908080601f016020809104026020016040519081016040528093929190818152602001838380828437600081840152601f19601f820116905080830192505050505050509192919290803590602001909291905050506113eb565b005b34801561058b57600080fd5b506105946115d3565b6040518082815260200191505060405180910390f35b6105be8260006115e490919063ffffffff16565b610630576040517f08c379a00000000000000000000000000000000000000000000000000000000081526004018080602001828103825260148152602001807f547275737420646f65736e27742065786973742e00000000000000000000000081525060200191505060405180910390fd5b60006003600084815260200190815260200160002090508060040160009054906101000a900473ffffffffffffffffffffffffffffffffffffffff1673ffffffffffffffffffffffffffffffffffffffff163373ffffffffffffffffffffffffffffffffffffffff1614806106f457508060020160009054906101000a900473ffffffffffffffffffffffffffffffffffffffff1673ffffffffffffffffffffffffffffffffffffffff163373ffffffffffffffffffffffffffffffffffffffff16145b610749576040517f08c379a0000000000000000000000000000000000000000000000000000000008152600401808060200182810382526023815260200180611b616023913960400191505060405180910390fd5b80600301548211156107a6576040517f08c379a000000000000000000000000000000000000000000000000000000000815260040180806020018281038252602e815260200180611afe602e913960400191505060405180910390fd5b3373ffffffffffffffffffffffffffffffffffffffff166108fc839081150290604051600060405180830381858888f193505050501580156107ec573d6000803e3d6000fd5b50818160030160008282540392505081905550505050565b6108188160006115e490919063ffffffff16565b61086d576040517f08c379a0000000000000000000000000000000000000000000000000000000008152600401808060200182810382526028815260200180611a8a6028913960400191505060405180910390fd5b60006003600083815260200190815260200160002090503481600301600082825401925050819055505050565b6108b0600254600061163890919063ffffffff16565b600060036000600254815260200190815260200160002090506002548160000181905550828160010190805190602001906108ec929190611887565b50838160020160006101000a81548173ffffffffffffffffffffffffffffffffffffffff021916908373ffffffffffffffffffffffffffffffffffffffff160217905550348160030181905550338160040160006101000a81548173ffffffffffffffffffffffffffffffffffffffff021916908373ffffffffffffffffffffffffffffffffffffffff160217905550428160050181905550818160060181905550600060025460001c905080806001019150508060001b6002819055507f8a9da6227e575405dc95a03cbc4aa246aa87bf4c849903103f43c9f30cc58e9e33836000015484600101604051808473ffffffffffffffffffffffffffffffffffffffff1673ffffffffffffffffffffffffffffffffffffffff16815260200183815260200180602001828103825283818154600181600116156101000203166002900481526020019150805460018160011615610100020316600290048015610a965780601f10610a6b57610100808354040283529160200191610a96565b820191906000526020600020905b815481529060010190602001808311610a7957829003601f168201915b505094505050505060405180910390a15050505050565b6060610ac38260006115e490919063ffffffff16565b610b35576040517f08c379a000000000000000000000000000000000000000000000000000000000815260040180806020018281038252600f8152602001807f5472757374206e6f7420666f756e64000000000000000000000000000000000081525060200191505060405180910390fd5b6000600360008481526020019081526020016000209050806001018054600181600116156101000203166002900480601f016020809104026020016040519081016040528092919081815260200182805460018160011615610100020316600290048015610be45780601f10610bb957610100808354040283529160200191610be4565b820191906000526020600020905b815481529060010190602001808311610bc757829003601f168201915b5050505050915050919050565b6000610c0782600061174190919063ffffffff16565b9050919050565b610c228160006115e490919063ffffffff16565b610c77576040517f08c379a0000000000000000000000000000000000000000000000000000000008152600401808060200182810382526028815260200180611bb96028913960400191505060405180910390fd5b610c7f611907565b600360008381526020019081526020016000206040518060e001604052908160008201548152602001600182018054600181600116156101000203166002900480601f016020809104026020016040519081016040528092919081815260200182805460018160011615610100020316600290048015610d405780601f10610d1557610100808354040283529160200191610d40565b820191906000526020600020905b815481529060010190602001808311610d2357829003601f168201915b505050505081526020016002820160009054906101000a900473ffffffffffffffffffffffffffffffffffffffff1673ffffffffffffffffffffffffffffffffffffffff1673ffffffffffffffffffffffffffffffffffffffff168152602001600382015481526020016004820160009054906101000a900473ffffffffffffffffffffffffffffffffffffffff1673ffffffffffffffffffffffffffffffffffffffff1673ffffffffffffffffffffffffffffffffffffffff1681526020016005820154815260200160068201548152505090506000816060015114610e72576040517f08c379a0000000000000000000000000000000000000000000000000000000008152600401808060200182810382526030815260200180611a326030913960400191505060405180910390fd5b806080015173ffffffffffffffffffffffffffffffffffffffff163373ffffffffffffffffffffffffffffffffffffffff1614610efa576040517f08c379a0000000000000000000000000000000000000000000000000000000008152600401808060200182810382526027815260200180611ad76027913960400191505060405180910390fd5b610f0e82600061176590919063ffffffff16565b60036000838152602001908152602001600020600080820160009055600182016000610f3a9190611973565b6002820160006101000a81549073ffffffffffffffffffffffffffffffffffffffff021916905560038201600090556004820160006101000a81549073ffffffffffffffffffffffffffffffffffffffff02191690556005820160009055600682016000905550507fe766bc0652d21f92ea757a24078cf3ba4f6171072af865e53ac3e2a015ae55493383604051808373ffffffffffffffffffffffffffffffffffffffff1673ffffffffffffffffffffffffffffffffffffffff1681526020018281526020019250505060405180910390a15050565b6000606060008060008060006110318860006115e490919063ffffffff16565b611086576040517f08c379a0000000000000000000000000000000000000000000000000000000008152600401808060200182810382526025815260200180611ab26025913960400191505060405180910390fd5b6000600360008a815260200190815260200160002090508060000154816001018260020160009054906101000a900473ffffffffffffffffffffffffffffffffffffffff1683600301548460040160009054906101000a900473ffffffffffffffffffffffffffffffffffffffff1685600501548660060154858054600181600116156101000203166002900480601f0160208091040260200160405190810160405280929190818152602001828054600181600116156101000203166002900480156111945780601f1061116957610100808354040283529160200191611194565b820191906000526020600020905b81548152906001019060200180831161117757829003601f168201915b50505050509550975097509750975097509750975050919395979092949650565b6111c98160006115e490919063ffffffff16565b61123b576040517f08c379a00000000000000000000000000000000000000000000000000000000081526004018080602001828103825260148152602001807f547275737420646f65736e27742065786973742e00000000000000000000000081525060200191505060405180910390fd5b611243611907565b600360008381526020019081526020016000206040518060e001604052908160008201548152602001600182018054600181600116156101000203166002900480601f0160208091040260200160405190810160405280929190818152602001828054600181600116156101000203166002900480156113045780601f106112d957610100808354040283529160200191611304565b820191906000526020600020905b8154815290600101906020018083116112e757829003601f168201915b505050505081526020016002820160009054906101000a900473ffffffffffffffffffffffffffffffffffffffff1673ffffffffffffffffffffffffffffffffffffffff1673ffffffffffffffffffffffffffffffffffffffff168152602001600382015481526020016004820160009054906101000a900473ffffffffffffffffffffffffffffffffffffffff1673ffffffffffffffffffffffffffffffffffffffff1673ffffffffffffffffffffffffffffffffffffffff1681526020016005820154815260200160068201548152505090506113e78282606001516105aa565b5050565b6113ff8460006115e490919063ffffffff16565b611454576040517f08c379a0000000000000000000000000000000000000000000000000000000008152600401808060200182810382526028815260200180611a8a6028913960400191505060405180910390fd5b600060036000868152602001908152602001600020905082816001019080519060200190611483929190611887565b50838160020160006101000a81548173ffffffffffffffffffffffffffffffffffffffff021916908373ffffffffffffffffffffffffffffffffffffffff1602179055508181600601819055507f25a57a8fa1c5147389ddeebada126a8b82479b2ff157205a4c47d91ae3b5f1d233826000015483600101604051808473ffffffffffffffffffffffffffffffffffffffff1673ffffffffffffffffffffffffffffffffffffffff168152602001838152602001806020018281038252838181546001816001161561010002031660029004815260200191508054600181600116156101000203166002900480156115bc5780601f10611591576101008083540402835291602001916115bc565b820191906000526020600020905b81548152906001019060200180831161159f57829003601f168201915b505094505050505060405180910390a15050505050565b60006115df6000611876565b905090565b600080836001018054905014156115fe5760009050611632565b8183600101846000016000858152602001908152602001600020548154811061162357fe5b90600052602060002001541490505b92915050565b6000801b811415611694576040517f08c379a0000000000000000000000000000000000000000000000000000000008152600401808060200182810382526028815260200180611a626028913960400191505060405180910390fd5b61169e82826115e4565b156116f4576040517f08c379a0000000000000000000000000000000000000000000000000000000008152600401808060200182810382526035815260200180611b846035913960400191505060405180910390fd5b600182600101829080600181540180825580915050906001820390600052602060002001600090919290919091505503826000016000838152602001908152602001600020819055505050565b600082600101828154811061175257fe5b9060005260206000200154905092915050565b61176f82826115e4565b6117c4576040517f08c379a0000000000000000000000000000000000000000000000000000000008152600401808060200182810382526035815260200180611b2c6035913960400191505060405180910390fd5b60008260010160016117d585611876565b03815481106117e057fe5b90600052602060002001549050600083600001600084815260200190815260200160002054905080846000016000848152602001908152602001600020819055508184600101828154811061183157fe5b9060005260206000200181905550836000016000848152602001908152602001600020600090558360010180548091906001900361186f91906119bb565b5050505050565b600081600101805490509050919050565b828054600181600116156101000203166002900490600052602060002090601f016020900481019282601f106118c857805160ff19168380011785556118f6565b828001600101855582156118f6579182015b828111156118f55782518255916020019190600101906118da565b5b50905061190391906119e7565b5090565b6040518060e001604052806000801916815260200160608152602001600073ffffffffffffffffffffffffffffffffffffffff16815260200160008152602001600073ffffffffffffffffffffffffffffffffffffffff16815260200160008152602001600081525090565b50805460018160011615610100020316600290046000825580601f1061199957506119b8565b601f0160209004906000526020600020908101906119b791906119e7565b5b50565b8154818355818111156119e2578183600052602060002091820191016119e19190611a0c565b5b505050565b611a0991905b80821115611a055760008160009055506001016119ed565b5090565b90565b611a2e91905b80821115611a2a576000816000905550600101611a12565b5090565b9056fe43616e27742064656c657465206120747275737420776974682065746865722c2077697468647261772066697273742e556e6f7264657265644b65795365742831303029202d204b65792063616e6e6f742062652030783043616e2774207570646174652061207472757374207468617420646f65736e27742065786973742e43616e2774206765742061207472757374207468617420646f65736e27742065786973742e4f6e6c79207468652063726561746f722063616e2064656c65746520746869732074727573742e43616e2774207769746864726177206d6f7265206574686572207468616e2065786973747320696e207472757374556e6f7264657265644b65795365742831303229202d204b657920646f6573206e6f7420657869737420696e20746865207365742e4f6e6c792043726561746f7220616e64204f776e65722063616e207769746864726177556e6f7264657265644b65795365742831303129202d204b657920616c72656164792065786973747320696e20746865207365742e43616e27742064656c6574652061207472757374207468617420646f65736e27742065786973742ea265627a7a7231582024cdc321fdd163f06b9de34f7f5fd8b05a98f6059c129ba5d56c976645aa6b8764736f6c63430005100032",
  "source": "pragma solidity >=0.5.0 <0.9.0;\n\nimport \"./HitchensUnorderedKeySet.sol\";\n\ncontract Trusts {\n\n    using HitchensUnorderedKeySetLib for HitchensUnorderedKeySetLib.Set;\n    HitchensUnorderedKeySetLib.Set trustSet;\n \n    // data structure that stores a trust\n    struct Trust {\n        bytes32 key;\n        string name;\n        address beneficiary;\n        uint etherAmount;\n        address creator;\n        uint createdDate;\n        uint maturityDate;\n    }\n\n    bytes32 nextKey;\n \n    mapping(bytes32 => Trust) trusts;\n    \n    event LogCreateTrust(address sender, bytes32 key, string name);\n    event LogUpdateTrust(address sender, bytes32 key, string name);    \n    event LogDepositTrust(address sender, bytes32 key, uint etherAmount);    \n    event LogRemoveTrust(address sender, bytes32 key);\n\n    /**\n     * Constructor function\n     */\n    constructor() public {\n        nextKey = '0x1';\n    }\n\n    function createTrust (address _beneficiary, \n                         string memory _name,  \n                         uint _maturityDate) public payable {\n        \n \n        trustSet.insert(nextKey); // Note that this will fail automatically if the key already exists.\n        \n        Trust storage t = trusts[nextKey];\n    \n        t.key = nextKey;\n        t.name = _name;\n        t.beneficiary = _beneficiary;\n        t.etherAmount = msg.value;\n        t.creator = msg.sender;\n        t.createdDate = now;\n        t.maturityDate = _maturityDate;\n\n        uint n = uint(nextKey);\n        n++;\n        nextKey = bytes32(n);\n\n        emit LogCreateTrust(msg.sender, t.key, t.name);\n        \n    }\n\n    function updateTrust(bytes32 key, address _beneficiary, \n                         string memory _name,  \n                         uint _maturityDate) public {\n        \n        require(trustSet.exists(key), \"Can't update a trust that doesn't exist.\");\n        Trust storage t = trusts[key];\n        t.name = _name;\n        t.beneficiary = _beneficiary;\n        t.maturityDate = _maturityDate;\n\n        emit LogUpdateTrust(msg.sender, t.key, t.name);\n    }\n    \n    function depositTrust(bytes32 key) public payable {\n        \n        require(trustSet.exists(key), \"Can't update a trust that doesn't exist.\");\n        \n        Trust storage t = trusts[key];\n\n        t.etherAmount += msg.value;\n\n        //emit LogDepositTrust(msg.sender, key, msg.value);\n    }\n    \n    function deleteTrust(bytes32 key) public {\n\n        require(trustSet.exists(key), \"Can't delete a trust that doesn't exist.\");\n        \n        Trust memory t = trusts[key];\n\n        require(t.etherAmount == 0, \"Can't delete a trust with ether, withdraw first.\");\n        require(msg.sender == t.creator, \"Only the creator can delete this trust.\");\n\n        trustSet.remove(key); // Note that this will fail automatically if the key doesn't exist\n        \n        delete trusts[key];\n        \n        emit LogRemoveTrust(msg.sender, key);\n    }\n \n /*         bytes32 key;\n        string name;\n        address beneficiary;\n        uint etherAmount;\n        address creator;\n        uint createdDate;\n        uint maturityDate;\n */\n    function getTrustName(bytes32 key) public view returns(string memory name)\n    {\n        require(trustSet.exists(key), \"Trust not found\");\n        Trust storage t = trusts[key];\n        return t.name;\n    }\n    function getTrust(bytes32 _key) public view returns( bytes32 key,\n                                                        string memory name, \n                                                        address beneficiary,\n                                                        uint etherAmount,\n                                                        address creator,\n                                                        uint createdDate,\n                                                        uint maturityDate) {\n        \n        require(trustSet.exists(_key), \"Can't get a trust that doesn't exist.\");\n        \n        Trust storage t = trusts[_key];\n\n        return(t.key, t.name, t.beneficiary, t.etherAmount, t.creator, t.createdDate, t.maturityDate);\n    }\n    \n    function getTrustCount() public view returns(uint count) {\n        return trustSet.count();\n    }\n    \n    function getTrustAtIndex(uint index) public view returns(bytes32 key) {\n        return trustSet.keyAtIndex(index);\n    }\n\n    // Todo: Add OnlyAfter\n    // Todo: Add Partial withdrawals\n    \n    function withdraw (bytes32 key, uint _etherAmount) public payable {\n        \n        require(trustSet.exists(key), \"Trust doesn't exist.\");\n\n        Trust storage t = trusts[key];\n\n        require(msg.sender == t.creator || msg.sender == t.beneficiary, \"Only Creator and Owner can withdraw\");\n        //TODO: Check that date allows\n        require(_etherAmount <= t.etherAmount, \"Can't withdraw more ether than exists in trust\");\n\n        msg.sender.transfer(_etherAmount);\n        \n        t.etherAmount -= _etherAmount;\n    }\n    \n    function withdrawAll (bytes32 key) public payable {\n        \n        require(trustSet.exists(key), \"Trust doesn't exist.\");\n        Trust memory t = trusts[key];\n        withdraw(key, t.etherAmount);\n    }\n    \n    modifier onlyAfter(uint _time) {\n\n        require(\n            now >= _time,\n            \"Function called too early.\"\n        );\n        _;\n    }\n}\n",
  "sourcePath": "/Users/rtrollope/git/ethtrust/contracts/Trusts.sol",
  "compiler": {
    "name": "solc",
    "version": "0.5.16+commit.9c3226ce.Emscripten.clang"
  },
  "schemaVersion": "3.4.0",
  "updatedAt": "2021-06-22T15:34:17.448Z",
  "networkType": "ethereum",
  "devdoc": {
    "methods": {}
  },
  "userdoc": {
    "methods": {
      "constructor": "Constructor function"
    }
  }
}