{
  "contractName": "Trusts",
  "abi": [
    {
      "inputs": [],
      "payable": false,
      "stateMutability": "nonpayable",
      "type": "constructor"
    },
    {
      "anonymous": false,
      "inputs": [
        {
          "indexed": false,
          "internalType": "address",
          "name": "sender",
          "type": "address"
        },
        {
          "indexed": false,
          "internalType": "bytes32",
          "name": "key",
          "type": "bytes32"
        },
        {
          "indexed": false,
          "internalType": "string",
          "name": "name",
          "type": "string"
        }
      ],
      "name": "LogCreateTrust",
      "type": "event"
    },
    {
      "anonymous": false,
      "inputs": [
        {
          "indexed": false,
          "internalType": "address",
          "name": "sender",
          "type": "address"
        },
        {
          "indexed": false,
          "internalType": "bytes32",
          "name": "key",
          "type": "bytes32"
        }
      ],
      "name": "LogRemoveTrust",
      "type": "event"
    },
    {
      "anonymous": false,
      "inputs": [
        {
          "indexed": false,
          "internalType": "address",
          "name": "sender",
          "type": "address"
        },
        {
          "indexed": false,
          "internalType": "bytes32",
          "name": "key",
          "type": "bytes32"
        },
        {
          "indexed": false,
          "internalType": "string",
          "name": "name",
          "type": "string"
        }
      ],
      "name": "LogUpdateTrust",
      "type": "event"
    },
    {
      "constant": false,
      "inputs": [
        {
          "internalType": "address",
          "name": "_beneficiary",
          "type": "address"
        },
        {
          "internalType": "string",
          "name": "_name",
          "type": "string"
        },
        {
          "internalType": "uint256",
          "name": "_maturityDate",
          "type": "uint256"
        }
      ],
      "name": "createTrust",
      "outputs": [],
      "payable": true,
      "stateMutability": "payable",
      "type": "function"
    },
    {
      "constant": false,
      "inputs": [
        {
          "internalType": "bytes32",
          "name": "key",
          "type": "bytes32"
        },
        {
          "internalType": "address",
          "name": "_beneficiary",
          "type": "address"
        },
        {
          "internalType": "string",
          "name": "_name",
          "type": "string"
        },
        {
          "internalType": "uint256",
          "name": "_maturityDate",
          "type": "uint256"
        }
      ],
      "name": "updateTrust",
      "outputs": [],
      "payable": false,
      "stateMutability": "nonpayable",
      "type": "function"
    },
    {
      "constant": false,
      "inputs": [
        {
          "internalType": "bytes32",
          "name": "key",
          "type": "bytes32"
        }
      ],
      "name": "deleteTrust",
      "outputs": [],
      "payable": false,
      "stateMutability": "nonpayable",
      "type": "function"
    },
    {
      "constant": true,
      "inputs": [
        {
          "internalType": "bytes32",
          "name": "key",
          "type": "bytes32"
        }
      ],
      "name": "getTrustName",
      "outputs": [
        {
          "internalType": "string",
          "name": "name",
          "type": "string"
        }
      ],
      "payable": false,
      "stateMutability": "view",
      "type": "function"
    },
    {
      "constant": true,
      "inputs": [
        {
          "internalType": "bytes32",
          "name": "_key",
          "type": "bytes32"
        }
      ],
      "name": "getTrust",
      "outputs": [
        {
          "internalType": "bytes32",
          "name": "key",
          "type": "bytes32"
        },
        {
          "internalType": "string",
          "name": "name",
          "type": "string"
        },
        {
          "internalType": "address",
          "name": "beneficiary",
          "type": "address"
        },
        {
          "internalType": "uint256",
          "name": "etherAmount",
          "type": "uint256"
        },
        {
          "internalType": "address",
          "name": "creator",
          "type": "address"
        },
        {
          "internalType": "uint256",
          "name": "createdDate",
          "type": "uint256"
        },
        {
          "internalType": "uint256",
          "name": "maturityDate",
          "type": "uint256"
        }
      ],
      "payable": false,
      "stateMutability": "view",
      "type": "function"
    },
    {
      "constant": true,
      "inputs": [],
      "name": "getTrustCount",
      "outputs": [
        {
          "internalType": "uint256",
          "name": "count",
          "type": "uint256"
        }
      ],
      "payable": false,
      "stateMutability": "view",
      "type": "function"
    },
    {
      "constant": true,
      "inputs": [
        {
          "internalType": "uint256",
          "name": "index",
          "type": "uint256"
        }
      ],
      "name": "getTrustAtIndex",
      "outputs": [
        {
          "internalType": "bytes32",
          "name": "key",
          "type": "bytes32"
        }
      ],
      "payable": false,
      "stateMutability": "view",
      "type": "function"
    },
    {
      "constant": false,
      "inputs": [
        {
          "internalType": "bytes32",
          "name": "key",
          "type": "bytes32"
        },
        {
          "internalType": "uint256",
          "name": "_etherAmount",
          "type": "uint256"
        }
      ],
      "name": "withdraw",
      "outputs": [],
      "payable": true,
      "stateMutability": "payable",
      "type": "function"
    },
    {
      "constant": false,
      "inputs": [
        {
          "internalType": "bytes32",
          "name": "key",
          "type": "bytes32"
        }
      ],
      "name": "withdrawAll",
      "outputs": [],
      "payable": true,
      "stateMutability": "payable",
      "type": "function"
    }
  ],
  "bytecode": "0x608060405234801561001057600080fd5b507f3078310000000000000000000000000000000000000000000000000000000000600281905550611b46806100476000396000f3fe6080604052600436106100865760003560e01c8063b6309f5611610059578063b6309f56146102ab578063c05fdce9146102e6578063c42c6e141461041c578063d0af1d9c1461044a578063e80dfb9a1461054657610086565b8063040cf0201461008b578063222882cc146100c357806343782b98146101a8578063891a19361461025c575b600080fd5b6100c1600480360360408110156100a157600080fd5b810190808035906020019092919080359060200190929190505050610571565b005b6101a6600480360360608110156100d957600080fd5b81019080803573ffffffffffffffffffffffffffffffffffffffff1690602001909291908035906020019064010000000081111561011657600080fd5b82018360208201111561012857600080fd5b8035906020019184600183028401116401000000008311171561014a57600080fd5b91908080601f016020809104026020016040519081016040528093929190818152602001838380828437600081840152601f19601f820116905080830192505050505050509192919290803590602001909291905050506107cb565b005b3480156101b457600080fd5b506101e1600480360360208110156101cb57600080fd5b81019080803590602001909291905050506109de565b6040518080602001828103825283818151815260200191508051906020019080838360005b83811015610221578082015181840152602081019050610206565b50505050905090810190601f16801561024e5780820380516001836020036101000a031916815260200191505b509250505060405180910390f35b34801561026857600080fd5b506102956004803603602081101561027f57600080fd5b8101908080359060200190929190505050610b22565b6040518082815260200191505060405180910390f35b3480156102b757600080fd5b506102e4600480360360208110156102ce57600080fd5b8101908080359060200190929190505050610b3f565b005b3480156102f257600080fd5b5061031f6004803603602081101561030957600080fd5b8101908080359060200190929190505050610f42565b60405180888152602001806020018773ffffffffffffffffffffffffffffffffffffffff1673ffffffffffffffffffffffffffffffffffffffff1681526020018681526020018573ffffffffffffffffffffffffffffffffffffffff1673ffffffffffffffffffffffffffffffffffffffff168152602001848152602001838152602001828103825288818151815260200191508051906020019080838360005b838110156103db5780820151818401526020810190506103c0565b50505050905090810190601f1680156104085780820380516001836020036101000a031916815260200191505b509850505050505050505060405180910390f35b6104486004803603602081101561043257600080fd5b81019080803590602001909291905050506110e6565b005b34801561045657600080fd5b506105446004803603608081101561046d57600080fd5b8101908080359060200190929190803573ffffffffffffffffffffffffffffffffffffffff169060200190929190803590602001906401000000008111156104b457600080fd5b8201836020820111156104c657600080fd5b803590602001918460018302840111640100000000831117156104e857600080fd5b91908080601f016020809104026020016040519081016040528093929190818152602001838380828437600081840152601f19601f8201169050808301925050505050505091929192908035906020019092919050505061131c565b005b34801561055257600080fd5b5061055b611504565b6040518082815260200191505060405180910390f35b61058582600061151590919063ffffffff16565b6105f7576040517f08c379a00000000000000000000000000000000000000000000000000000000081526004018080602001828103825260148152602001807f547275737420646f65736e27742065786973742e00000000000000000000000081525060200191505060405180910390fd5b60006003600084815260200190815260200160002090508060040160009054906101000a900473ffffffffffffffffffffffffffffffffffffffff1673ffffffffffffffffffffffffffffffffffffffff163373ffffffffffffffffffffffffffffffffffffffff1614806106bb57508060020160009054906101000a900473ffffffffffffffffffffffffffffffffffffffff1673ffffffffffffffffffffffffffffffffffffffff163373ffffffffffffffffffffffffffffffffffffffff16145b610710576040517f08c379a0000000000000000000000000000000000000000000000000000000008152600401808060200182810382526023815260200180611a926023913960400191505060405180910390fd5b806003015482101561076d576040517f08c379a000000000000000000000000000000000000000000000000000000000815260040180806020018281038252602e815260200180611a2f602e913960400191505060405180910390fd5b3373ffffffffffffffffffffffffffffffffffffffff166108fc839081150290604051600060405180830381858888f193505050501580156107b3573d6000803e3d6000fd5b50818160030160008282540392505081905550505050565b6107e1600254600061156990919063ffffffff16565b6000600360006002548152602001908152602001600020905060025481600001819055508281600101908051906020019061081d9291906117b8565b50838160020160006101000a81548173ffffffffffffffffffffffffffffffffffffffff021916908373ffffffffffffffffffffffffffffffffffffffff160217905550348160030181905550338160040160006101000a81548173ffffffffffffffffffffffffffffffffffffffff021916908373ffffffffffffffffffffffffffffffffffffffff160217905550428160050181905550818160060181905550600060025460001c905080806001019150508060001b6002819055507f8a9da6227e575405dc95a03cbc4aa246aa87bf4c849903103f43c9f30cc58e9e33836000015484600101604051808473ffffffffffffffffffffffffffffffffffffffff1673ffffffffffffffffffffffffffffffffffffffff168152602001838152602001806020018281038252838181546001816001161561010002031660029004815260200191508054600181600116156101000203166002900480156109c75780601f1061099c576101008083540402835291602001916109c7565b820191906000526020600020905b8154815290600101906020018083116109aa57829003601f168201915b505094505050505060405180910390a15050505050565b60606109f482600061151590919063ffffffff16565b610a66576040517f08c379a000000000000000000000000000000000000000000000000000000000815260040180806020018281038252600f8152602001807f5472757374206e6f7420666f756e64000000000000000000000000000000000081525060200191505060405180910390fd5b6000600360008481526020019081526020016000209050806001018054600181600116156101000203166002900480601f016020809104026020016040519081016040528092919081815260200182805460018160011615610100020316600290048015610b155780601f10610aea57610100808354040283529160200191610b15565b820191906000526020600020905b815481529060010190602001808311610af857829003601f168201915b5050505050915050919050565b6000610b3882600061167290919063ffffffff16565b9050919050565b610b5381600061151590919063ffffffff16565b610ba8576040517f08c379a0000000000000000000000000000000000000000000000000000000008152600401808060200182810382526028815260200180611aea6028913960400191505060405180910390fd5b610bb0611838565b600360008381526020019081526020016000206040518060e001604052908160008201548152602001600182018054600181600116156101000203166002900480601f016020809104026020016040519081016040528092919081815260200182805460018160011615610100020316600290048015610c715780601f10610c4657610100808354040283529160200191610c71565b820191906000526020600020905b815481529060010190602001808311610c5457829003601f168201915b505050505081526020016002820160009054906101000a900473ffffffffffffffffffffffffffffffffffffffff1673ffffffffffffffffffffffffffffffffffffffff1673ffffffffffffffffffffffffffffffffffffffff168152602001600382015481526020016004820160009054906101000a900473ffffffffffffffffffffffffffffffffffffffff1673ffffffffffffffffffffffffffffffffffffffff1673ffffffffffffffffffffffffffffffffffffffff1681526020016005820154815260200160068201548152505090506000816060015114610da3576040517f08c379a00000000000000000000000000000000000000000000000000000000081526004018080602001828103825260308152602001806119636030913960400191505060405180910390fd5b806080015173ffffffffffffffffffffffffffffffffffffffff163373ffffffffffffffffffffffffffffffffffffffff1614610e2b576040517f08c379a0000000000000000000000000000000000000000000000000000000008152600401808060200182810382526027815260200180611a086027913960400191505060405180910390fd5b610e3f82600061169690919063ffffffff16565b60036000838152602001908152602001600020600080820160009055600182016000610e6b91906118a4565b6002820160006101000a81549073ffffffffffffffffffffffffffffffffffffffff021916905560038201600090556004820160006101000a81549073ffffffffffffffffffffffffffffffffffffffff02191690556005820160009055600682016000905550507fe766bc0652d21f92ea757a24078cf3ba4f6171072af865e53ac3e2a015ae55493383604051808373ffffffffffffffffffffffffffffffffffffffff1673ffffffffffffffffffffffffffffffffffffffff1681526020018281526020019250505060405180910390a15050565b600060606000806000806000610f6288600061151590919063ffffffff16565b610fb7576040517f08c379a00000000000000000000000000000000000000000000000000000000081526004018080602001828103825260258152602001806119e36025913960400191505060405180910390fd5b6000600360008a815260200190815260200160002090508060000154816001018260020160009054906101000a900473ffffffffffffffffffffffffffffffffffffffff1683600301548460040160009054906101000a900473ffffffffffffffffffffffffffffffffffffffff1685600501548660060154858054600181600116156101000203166002900480601f0160208091040260200160405190810160405280929190818152602001828054600181600116156101000203166002900480156110c55780601f1061109a576101008083540402835291602001916110c5565b820191906000526020600020905b8154815290600101906020018083116110a857829003601f168201915b50505050509550975097509750975097509750975050919395979092949650565b6110fa81600061151590919063ffffffff16565b61116c576040517f08c379a00000000000000000000000000000000000000000000000000000000081526004018080602001828103825260148152602001807f547275737420646f65736e27742065786973742e00000000000000000000000081525060200191505060405180910390fd5b611174611838565b600360008381526020019081526020016000206040518060e001604052908160008201548152602001600182018054600181600116156101000203166002900480601f0160208091040260200160405190810160405280929190818152602001828054600181600116156101000203166002900480156112355780601f1061120a57610100808354040283529160200191611235565b820191906000526020600020905b81548152906001019060200180831161121857829003601f168201915b505050505081526020016002820160009054906101000a900473ffffffffffffffffffffffffffffffffffffffff1673ffffffffffffffffffffffffffffffffffffffff1673ffffffffffffffffffffffffffffffffffffffff168152602001600382015481526020016004820160009054906101000a900473ffffffffffffffffffffffffffffffffffffffff1673ffffffffffffffffffffffffffffffffffffffff1673ffffffffffffffffffffffffffffffffffffffff168152602001600582015481526020016006820154815250509050611318828260600151610571565b5050565b61133084600061151590919063ffffffff16565b611385576040517f08c379a00000000000000000000000000000000000000000000000000000000081526004018080602001828103825260288152602001806119bb6028913960400191505060405180910390fd5b6000600360008681526020019081526020016000209050828160010190805190602001906113b49291906117b8565b50838160020160006101000a81548173ffffffffffffffffffffffffffffffffffffffff021916908373ffffffffffffffffffffffffffffffffffffffff1602179055508181600601819055507f25a57a8fa1c5147389ddeebada126a8b82479b2ff157205a4c47d91ae3b5f1d233826000015483600101604051808473ffffffffffffffffffffffffffffffffffffffff1673ffffffffffffffffffffffffffffffffffffffff168152602001838152602001806020018281038252838181546001816001161561010002031660029004815260200191508054600181600116156101000203166002900480156114ed5780601f106114c2576101008083540402835291602001916114ed565b820191906000526020600020905b8154815290600101906020018083116114d057829003601f168201915b505094505050505060405180910390a15050505050565b600061151060006117a7565b905090565b6000808360010180549050141561152f5760009050611563565b8183600101846000016000858152602001908152602001600020548154811061155457fe5b90600052602060002001541490505b92915050565b6000801b8114156115c5576040517f08c379a00000000000000000000000000000000000000000000000000000000081526004018080602001828103825260288152602001806119936028913960400191505060405180910390fd5b6115cf8282611515565b15611625576040517f08c379a0000000000000000000000000000000000000000000000000000000008152600401808060200182810382526035815260200180611ab56035913960400191505060405180910390fd5b600182600101829080600181540180825580915050906001820390600052602060002001600090919290919091505503826000016000838152602001908152602001600020819055505050565b600082600101828154811061168357fe5b9060005260206000200154905092915050565b6116a08282611515565b6116f5576040517f08c379a0000000000000000000000000000000000000000000000000000000008152600401808060200182810382526035815260200180611a5d6035913960400191505060405180910390fd5b6000826001016001611706856117a7565b038154811061171157fe5b90600052602060002001549050600083600001600084815260200190815260200160002054905080846000016000848152602001908152602001600020819055508184600101828154811061176257fe5b906000526020600020018190555083600001600084815260200190815260200160002060009055836001018054809190600190036117a091906118ec565b5050505050565b600081600101805490509050919050565b828054600181600116156101000203166002900490600052602060002090601f016020900481019282601f106117f957805160ff1916838001178555611827565b82800160010185558215611827579182015b8281111561182657825182559160200191906001019061180b565b5b5090506118349190611918565b5090565b6040518060e001604052806000801916815260200160608152602001600073ffffffffffffffffffffffffffffffffffffffff16815260200160008152602001600073ffffffffffffffffffffffffffffffffffffffff16815260200160008152602001600081525090565b50805460018160011615610100020316600290046000825580601f106118ca57506118e9565b601f0160209004906000526020600020908101906118e89190611918565b5b50565b81548183558181111561191357818360005260206000209182019101611912919061193d565b5b505050565b61193a91905b8082111561193657600081600090555060010161191e565b5090565b90565b61195f91905b8082111561195b576000816000905550600101611943565b5090565b9056fe43616e27742064656c657465206120747275737420776974682065746865722c2077697468647261772066697273742e556e6f7264657265644b65795365742831303029202d204b65792063616e6e6f742062652030783043616e2774207570646174652061207472757374207468617420646f65736e27742065786973742e43616e2774206765742061207472757374207468617420646f65736e27742065786973742e4f6e6c79207468652063726561746f722063616e2064656c65746520746869732074727573742e43616e2774207769746864726177206d6f7265206574686572207468616e2065786973747320696e207472757374556e6f7264657265644b65795365742831303229202d204b657920646f6573206e6f7420657869737420696e20746865207365742e4f6e6c792043726561746f7220616e64204f776e65722063616e207769746864726177556e6f7264657265644b65795365742831303129202d204b657920616c72656164792065786973747320696e20746865207365742e43616e27742064656c6574652061207472757374207468617420646f65736e27742065786973742ea265627a7a72315820dd8900825567dba3121119c7ed5f36c7d14b62bd9008f10713f3b10b1984c56a64736f6c63430005100032",
  "source": "pragma solidity >=0.5.0 <0.9.0;\n\nimport \"./HitchensUnorderedKeySet.sol\";\n\ncontract Trusts {\n\n    using HitchensUnorderedKeySetLib for HitchensUnorderedKeySetLib.Set;\n    HitchensUnorderedKeySetLib.Set trustSet;\n \n    // data structure that stores a trust\n    struct Trust {\n        bytes32 key;\n        string name;\n        address beneficiary;\n        uint etherAmount;\n        address creator;\n        uint createdDate;\n        uint maturityDate;\n    }\n\n    bytes32 nextKey;\n \n    mapping(bytes32 => Trust) trusts;\n    \n    event LogCreateTrust(address sender, bytes32 key, string name);\n    event LogUpdateTrust(address sender, bytes32 key, string name);    \n    event LogRemoveTrust(address sender, bytes32 key);\n\n    /**\n     * Constructor function\n     */\n    constructor() public {\n        nextKey = '0x1';\n    }\n\n    function createTrust (address _beneficiary, \n                         string memory _name,  \n                         uint _maturityDate) public payable {\n        \n \n        trustSet.insert(nextKey); // Note that this will fail automatically if the key already exists.\n        \n        Trust storage t = trusts[nextKey];\n    \n        t.key = nextKey;\n        t.name = _name;\n        t.beneficiary = _beneficiary;\n        t.etherAmount = msg.value;\n        t.creator = msg.sender;\n        t.createdDate = now;\n        t.maturityDate = _maturityDate;\n\n        uint n = uint(nextKey);\n        n++;\n        nextKey = bytes32(n);\n\n        emit LogCreateTrust(msg.sender, t.key, t.name);\n        \n    }\n\n    function updateTrust(bytes32 key, address _beneficiary, \n                         string memory _name,  \n                         uint _maturityDate) public {\n        \n        require(trustSet.exists(key), \"Can't update a trust that doesn't exist.\");\n        Trust storage t = trusts[key];\n        t.name = _name;\n        t.beneficiary = _beneficiary;\n        t.maturityDate = _maturityDate;\n\n        emit LogUpdateTrust(msg.sender, t.key, t.name);\n    }\n    \n    function deleteTrust(bytes32 key) public {\n\n        require(trustSet.exists(key), \"Can't delete a trust that doesn't exist.\");\n        \n        Trust memory t = trusts[key];\n\n        require(t.etherAmount == 0, \"Can't delete a trust with ether, withdraw first.\");\n        require(msg.sender == t.creator, \"Only the creator can delete this trust.\");\n\n        trustSet.remove(key); // Note that this will fail automatically if the key doesn't exist\n        \n        delete trusts[key];\n        \n        emit LogRemoveTrust(msg.sender, key);\n    }\n \n /*         bytes32 key;\n        string name;\n        address beneficiary;\n        uint etherAmount;\n        address creator;\n        uint createdDate;\n        uint maturityDate;\n */\n    function getTrustName(bytes32 key) public view returns(string memory name)\n    {\n        require(trustSet.exists(key), \"Trust not found\");\n        Trust storage t = trusts[key];\n        return t.name;\n    }\n    function getTrust(bytes32 _key) public view returns( bytes32 key,\n                                                        string memory name, \n                                                        address beneficiary,\n                                                        uint etherAmount,\n                                                        address creator,\n                                                        uint createdDate,\n                                                        uint maturityDate) {\n        \n        require(trustSet.exists(_key), \"Can't get a trust that doesn't exist.\");\n        \n        Trust storage t = trusts[_key];\n\n        return(t.key, t.name, t.beneficiary, t.etherAmount, t.creator, t.createdDate, t.maturityDate);\n    }\n    \n    function getTrustCount() public view returns(uint count) {\n        return trustSet.count();\n    }\n    \n    function getTrustAtIndex(uint index) public view returns(bytes32 key) {\n        return trustSet.keyAtIndex(index);\n    }\n\n    // Todo: Add OnlyAfter\n    // Todo: Add Partial withdrawals\n    \n    function withdraw (bytes32 key, uint _etherAmount) public payable {\n        \n        require(trustSet.exists(key), \"Trust doesn't exist.\");\n\n        Trust storage t = trusts[key];\n\n        require(msg.sender == t.creator || msg.sender == t.beneficiary, \"Only Creator and Owner can withdraw\");\n        \n        require(_etherAmount >= t.etherAmount, \"Can't withdraw more ether than exists in trust\");\n\n        msg.sender.transfer(_etherAmount);\n        \n        t.etherAmount -= _etherAmount;\n    }\n    \n    function withdrawAll (bytes32 key) public payable {\n        \n        require(trustSet.exists(key), \"Trust doesn't exist.\");\n        Trust memory t = trusts[key];\n        withdraw(key, t.etherAmount);\n    }\n    \n    modifier onlyAfter(uint _time) {\n\n        require(\n            now >= _time,\n            \"Function called too early.\"\n        );\n        _;\n    }\n}\n",
  "sourcePath": "/Users/rtrollope/git/ethtrust/contracts/Trusts.sol",
  "compiler": {
    "name": "solc",
    "version": "0.5.16+commit.9c3226ce.Emscripten.clang"
  },
  "schemaVersion": "3.4.0",
  "updatedAt": "2021-06-12T22:44:47.648Z",
  "networkType": "ethereum",
  "devdoc": {
    "methods": {}
  },
  "userdoc": {
    "methods": {
      "constructor": "Constructor function"
    }
  }
}